:020000040800F2
:10000000A836012041030008BD5A000885550008A4
:10001000B95A0008851A00088D7100080000000018
:100020000000000000000000000000005303000872
:10003000891A0008000000006D040008130400087D
:100040005B0300085B0300085B0300085B03000818
:100050005B0300085B0300085B0300085B03000808
:100060005B0300085B0300085B0300085B030008F8
:100070005B0300085B0300085B0300085B030008E8
:100080005B0300085B0300085B0300085B030008D8
:100090005B0300085B0300085B0300085B030008C8
:1000A0005B0300085B0300085B0300085B030008B8
:1000B0005B0300085B030008295C00085B03000881
:1000C0005B0300085B0300085B0300085B03000898
:1000D0005B0300085B0300085B0300085B03000888
:1000E0005B0300085B0300085B0300085B03000878
:1000F0005B0300085B0300085B0300085B03000868
:100100005B0300085B0300085B0300085B03000857
:100110005B0300085B0300085B0300085B03000847
:100120005B0300085B0300085B0300085B03000837
:100130005B0300085B0300085B0300085B03000827
:100140005B0300085B0300085B0300082D5B0008ED
:100150005B0300085B0300085B0300085B03000807
:100160005B0300085B0300085B0300085B030008F7
:100170005B0300085B0300085B030008000000004D
:100180005B0300085B03000800F002F800F0C8F809
:1001900014A696E8000CB244B344DA4501D100F04D
:1001A000BFF8BAE80F000FA696E83000A5EB0405EB
:1001B00004EB0607AAEB0704A7F101074FEA1515A0
:1001C0004FEA3414A4F10104AC4201D300F0A8F8C2
:1001D00013F0010F18BFFB1A43F0010300F001F800
:1001E000DBE71847049B0100249B01000A444FF001
:1001F000000C10F8013B13F0070408BF10F8014B86
:100200001D1108BF10F8015B641E05D010F8016BCA
:10021000641E01F8016BF9D113F0080F1EBF10F82E
:10022000014BAD1C0C1B09D16D1E58BF01F801CB51
:10023000FAD505E014F8016B01F8016B6D1EF9D5D4
:100240009142D6D37047000070470000002300247D
:1002500000250026103A28BF78C1FBD8520728BFD6
:1002600030C148BF0B6070476E2900F0C38370290E
:1002700000F00785662918F0E684652918F0E38404
:10028000672918F0E084612918F0DF8403681B0AED
:1002900028BF41F08001692900F07083642900F0D3
:1002A0006D83752900F06A836F2900F095847829A1
:1002B00000F0D384E92900F02F84E42900F02C8495
:1002C000F52900F02984EF2900F09284F82900F044
:1002D000D2840368DB0928BF41F08001632901F063
:1002E000F581732901F0FA81E32901F00582F329F0
:1002F00001F00A82002070471FB518F097FC01F04A
:1003000059FA04000020002118F07AFC401C6060BB
:100310000020002118F05EFCE0601FBD10B510BD8C
:1003200001F01AFA1146FFF7E7FF17F00FFB01F093
:10033000F7FA03B4FFF7F2FF03BC01F03FFB000044
:100340000948804709480047FEE7FEE7FEE7FEE769
:10035000FEE7FEE7FEE7FEE7FEE7FEE704480549A5
:10036000054A064B70470000155C0008890100082B
:10037000A8300120A8360120A8320120A83201208F
:10038000E0020020A8360120000000089C030020A5
:10039000001000E07FA219000000FF4000BF00BF76
:1003A00072B65FF824005FF8241001F104010160C7
:1003B0004FF0E0205FF83010C0F8081D5FF83400FF
:1003C0005FF83C10096801605FF83C00016841F08B
:1003D000010101604FF0E0205FF8481041614FF0EB
:1003E000070101614FF00001C0F8181D4FF07F4177
:1003F000C0F81C1D5FF86010C0F8201D7047FFF7A3
:10040000FEBFFFF7FEBFFFF7FEBF01B5BDE801402D
:10041000704701B500F094F8BDE801407047FFF760
:10042000FEBFFFF7FEBF000000000000000000005C
:10043000EFF3108180F31088084670470000000039
:100440004FF000002A4A1060EFF3148020F00400FF
:1004500080F3148862B64FF080504FF0E021C1F86D
:10046000040DBFF34F8FBFF36F8FFEE72148224A81
:100470004FF00003016891B10360EFF3098C2CE9A0
:10048000F00F1EF0100F01D12CED108A1B4C4CF810
:1004900004ED2568C1F808C00DB18D61236072B606
:1004A0001168B1B1016062B64F68144C8D6907F1F3
:1004B00001074F602560D1F808C05CF804EB1EF01E
:1004C000100F01D1BCEC108ABCE8F00F8CF3098846
:1004D000704772B61168016009B962B6F9E74FF06A
:1004E00000674FF0E028C8F8047D62B6DCE770478B
:1004F000140300200403002008030020000900204A
:10050000026922F00702A2F144026FF002031360B5
:100510004FF0000353609360D360136153619361A4
:10052000D361136253629362D362136353634FF0D8
:10053000FF339363D1634FF080731364826070471D
:100540002249086800F101000860214B1A683AB19D
:10055000A2F101021A601AB91E4B4FF00100186097
:100560001D490868026822B11C4B4FF001021A6055
:1005700008E000F104001A4B1A68904201D1194BAF
:1005800018680860134B1A6812B914490868D0B18A
:100590002DE901401149086808B10DF011FE0D4B1D
:1005A0001A6872B10DF080FD0F48016849B90F4813
:1005B00001680F4A13680F484FF08052994200D0EB
:1005C0000260BDE80140BFF34F8F70474C0400202C
:1005D00000090020B0030020A8030020AC03002085
:1005E000380400203C0400201403002004030020F1
:1005F0000803002004ED00E053EA020C00F06980DB
:100600002DE9F04B4FF00006002B1FBFB3FA83F526
:1006100003FA05F424FA05F65E4012BF1643B2FA57
:1006200082F502FA05F4C5F120051EBF22FA05FC89
:1006300044EA0C04203556EA044C4FEA144418BF2F
:10064000641C4FF000084FF00009904271EB030C5E
:1006500039D3002919BFB1FA81F701FA07F6B0FAC8
:1006600080F700FA07F6C7F120071EBF20FA07FC43
:1006700046EA0C062037B6FBF4FCA7EB0507103F53
:1006800007F01F0BCBF120062CFA06F60CFA0BFB39
:1006900044BFB3460026202FA4BF5E464FF0000B98
:1006A0005BEA060C08BF4FF0010B19EB0B0948EB96
:1006B0000608ABFB027C06FB02CC0BFB03CCC01B89
:1006C00071EB0C01C1E70B46024641464846BDE8C6
:1006D000F08B13B5084318BF4FF0FF300146AFF35E
:1006E0000080BDE81C4070470FB41CB50C0007AA81
:1006F000009007D04142A14202D32044401E01E0B5
:100700004FF0FF30074B7B4469460190069800F09C
:100710008AF90021002C01D0009A11701CBC5DF8F0
:1007200014FB0000430300007CB51D4616460C0078
:10073000009007D04142A14202D32044401E01E074
:100740004FF0FF30064B7B442A4669460190304605
:1007500000F069F9002C02D0009A002111707CBDD4
:1007600003030000032A40F2308010F0030C00F075
:10077000158011F8013BBCF1020F624498BF11F8DB
:1007800001CB00F8013B38BF11F8013BA2F1040294
:1007900098BF00F801CB38BF00F8013B11F003030C
:1007A00000F02580083AC0F0088051F8043B083A70
:1007B00051F804CBA0E80810F5E7121D5CBF51F812
:1007C000043B40F8043BAFF30080D20724BF11F88C
:1007D000013B11F801CB48BF11F8012B24BF00F8F1
:1007E000013B00F801CB48BF00F8012B704710B562
:1007F000203AC0F00B80B1E81850A0E81850B1E8DA
:100800001850A0E81850203ABFF4F5AF5FEA027C18
:1008100024BFB1E81850A0E8185044BF18C918C048
:10082000BDE810405FEA827C24BF51F8043B40F8E9
:10083000043B08BF7047D20728BF31F8023B48BFCE
:1008400011F8012B28BF20F8023B48BF00F8012B0C
:10085000704702F0FF0343EA032242EA024200F03B
:10086000E1BA4FF0000200B513469446964620398F
:1008700022BFA0E80C50A0E80C50B1F12001BFF459
:10088000F7AF090728BFA0E80C5048BF0CC05DF8BF
:1008900004EB890028BF40F8042B08BF704748BF0D
:1008A00020F8022B11F0804F18BF00F8012B704781
:1008B00070477047704770B5044685690068C10687
:1008C00001D5302600E02026C00707D070BDD4E94E
:1008D000012130469047206A401C20626D1EF6D5EB
:1008E00070BD70B5044685690078C00707D170BD3A
:1008F000D4E9012120209047206A401C20626D1E0F
:10090000F6D570BD09684A0501D540B27047C905E2
:10091000FCD500B2704709684A0501D5C0B27047DE
:10092000C905FCD580B2704770B50C460546012A52
:1009300005D02878800600D5EA69002302E001236B
:1009400005E05B1C934202D2E05C0028F9D1A86963
:10095000E618C01AA861286A184428622846FFF7DA
:10096000AAFF04E0D5E9012114F8010B9047B44235
:10097000F8D32846FFF7B5FF70BD00002DE9F04120
:100980000646002410687529314616A510D0FFF7D9
:10099000B9FF002802DA404213A507E031688A0750
:1009A00001D512A502E0490704D511A5012401E0F3
:1009B000FFF7B1FF00210A2206F1240709E0B0FB8E
:1009C000F2FCB0FBF2F302FB1C0030307854184606
:1009D000491C0028F3D123462A463046BDE8F041A1
:1009E00000F085BA000000002D0000002B00000080
:1009F0002000000011680268006A530501D50870E4
:100A00000AE0D30501D5088006E0130603D5C21716
:100A1000C1E9000200E008600120704701694A1C3A
:100A200002610878704700B58FB0CDE9013100212F
:100A3000059105497944CDE903101146684600F057
:100A40002BF90FB000BD0000E5FFFFFFD1E9002347
:100A50009A4202D2531C0B60107070472DE9FF5F61
:100A600015468A460446DFF8AC80F8440027D8E9EA
:100A700000103E46CDE9001010E03AF816106A4624
:100A800002A800F045FE411C07D02178890603D555
:100A9000E269391891420DD80744761C2078800607
:100AA00002D5E069B84205DDAE42E6DB3AF8160051
:100AB0000028E2D1A069C01BA0612046FFF7FBFE21
:100AC000D8E90010CDE90010002017E03AF818101E
:100AD0006A4602A800F01CFEB0F1FF3F81460BD031
:100AE00000250DF1080B05E0D4E901211BF80500F4
:100AF00090476D1C4D45F7D308F10100B042804688
:100B0000E4DB206A384420622046FFF7EAFEBDE8B5
:100B1000FF9F0000E28101002DE9F0418046D21DD7
:100B200022F007020025D2E90002F52915A614D00B
:100B3000011E72F1000106DA0023D0EB030063EB23
:100B4000020211A608E0D8F800108B0701D50FA605
:100B500002E0490701D50EA601251146002408F13F
:100B6000240704E000F07EF930323A55641C50EA64
:100B70000102F7D12B46324621464046BDE8F041FE
:100B800000F0B5B9000000002D0000002B000000AF
:100B90002000000030B4002100F1240408E002F03D
:100BA0000705D208303542EA4372DB086554491C18
:100BB00052EA0305F3D10468002310A2250708D5E3
:100BC00004F020040C4304D0C46901230CA2641E69
:100BD000C46130BC00F08BB910B5044621461068E2
:100BE000FFF799FE02462046BDE810400023D1E7FA
:100BF000D21D22F00701D1E90023CBE7000000005D
:100C000030000000F0B40D460188090502D5214CE2
:100C10007C4402E01F4C7C440E34002100F1240689
:100C200008E002F00F071209E75D42EA03721B09B0
:100C30007754491C52EA0307F3D1027800231207C4
:100C400004D5702D06D009B1022311342246F0BC20
:100C500000F04DB901231034F8E770B504460D4695
:100C600021461068FFF757FE024629462046BDE898
:100C700070400023C6E7D21D22F00703D3E900230A
:100C8000C0E70368126843F0200303600823C361D0
:100C90000023B7E7448001002DE9F05F8946044650
:100CA0004FF0000ADFF874B1FB44C0F820A02046E2
:100CB000E1688847002874D0252806D0D4E90121AE
:100CC0009047206A401C2062F1E700265F462046DC
:100CD000E16888472028054607DB312D05D27819C1
:100CE00010F8200C08B10643F1E7B00701D526F053
:100CF0000406C4F81CA00027C4F818A02A2D09D0A7
:100D0000284617F05FFF38B304EB8708303DC8F87A
:100D1000185019E059F8041B204604EB8702916132
:100D2000E1688847012F054618D1E069002820DADC
:100D300026F020061DE0D8F8180000EB800005EB37
:100D400040003038C8F818002046E168884705465A
:100D500017F038FF0028EED1012F0AD02E2D08D130
:100D60002046E16888477F1C0546022F46F0200692
:100D7000C4DBA069002803DA404246F00106A06106
:100D8000F00701D026F010066C2D0BD0682D09D08D
:100D90004C2D39D06A2D35D0742D35D07A2D33D0E5
:100DA00016E038E0E1682F4620468847B8420546FD
:100DB00009D16C2F26D04FF48060E16806432046AD
:100DC0008847054604E06C2F1AD04FF48070064324
:100DD0000DB3A5F14100192802D8203546F400666C
:100DE0004A462946204626604E46FFF73DFA80B126
:100DF00001280BD0F61D26F0070000F1080956E780
:100E00004020E4E78020D8E70020D6E706F1040977
:100E10004DE7284652E7206ABDE8F09FD47F0100E5
:100E20004FF000020429C0F0128010F0030C3FF4D0
:100E30001AADCCF1040CBCF1020F18BF00F8012B65
:100E4000A8BF20F8022BA1EB0C01FFF70CBD5FEA55
:100E5000C17C24BF00F8012B00F8012B48BF00F82B
:100E6000012B704730B5B0F10A0271F100034FEA6F
:100E7000900E4EEA817EB0EB0E0061EB91014FEADD
:100E8000101E4EEA017E10EB0E0041EB11114FEAED
:100E9000102E4EEA016E10EB0E0041EB11214FEACD
:100EA000104E4EEA014E10EB0E0041EB114140187E
:100EB00041F100014FEAD00040EA41704FEAD10110
:100EC0004FEA810444EA907410EB800544EB01047E
:100ED0006D1944EB0404521BA3414FF0000348BFBB
:100EE0000A3200D530BD401C41F1000130BD2DE972
:100EF000F0470D4699469246044600F124080168E1
:100F0000880604D5E06921F01001216000E001208D
:100F1000A84201DD471B00E00027A1697A1902EB16
:100F20000900081AA0612078C00602D42046FFF705
:100F3000C2FC002608E0D4E901211AF80600904717
:100F4000206A401C761C20624E45F4DB2078C006E7
:100F50000AD52046FFF7AFFC06E0D4E90121302096
:100F60009047206A401C2062381EA7F10107F4DC7C
:100F700007E0D4E9012118F805009047206A401CD9
:100F80002062281EA5F10105F3DC2046FFF7A9FC2D
:100F90002078000602D50220BDE8F0870120FBE79B
:100FA0002DE9FF4F0C461E464FF0FF378BB0D2E9BC
:100FB0000001DDF860800A908A46C1F30A5505B940
:100FC0003D46002108464FF00000BAF1000F00F442
:100FD000400005DA00EB80004FF4400101EA5000C8
:100FE0004FEA9059B9F1010F00DDB9460A9850EA6D
:100FF0004A000ED044F61050A5F2FF3545432F1499
:10100000B8F1000F1ED07542291E1EDDC9F1000285
:101010001CE0B8F1010F4FF0000001D0302103E0D7
:10102000F24305E02154401CB042FBDB3046002275
:10103000002121540B99C1F80880C1E900200FB0AC
:10104000BDE8F08FBD1B6D1CDEE74A4600DA694241
:1010500006A800F0F3FB06AB93E8070003AB83E8B8
:10106000070050460A9917F0CCF98DE80700A0F563
:1010700000501F3800900398002D0ADD42F21F0136
:101080004A460844002303A90390684617F036FC3B
:1010900009E0A0F500504A461F38002303A9039039
:1010A000684617F040FC8DE807000004000C03D0F0
:1010B0004FF0FF30410800E01046B8F1000F03D0B8
:1010C0000022009215461EE0751E05D4FFF7CAFEE9
:1010D000303262556D1EF9D5B3460122084302D065
:1010E00000227F1C04E02078302801D100227F1EDE
:1010F000002A099784D01DE0112D07DAFFF7B2FE10
:10110000303262556D1C50EA0102F5D1084302D01D
:101110000098C8B10EE00021681E05E0235C625C07
:1011200063542254401E491C8142F7DBAB46A81B86
:10113000401E0990002004F80B000B98099AC0F893
:101140000880C0E9002B7AE711264FF0000857E726
:101150002DE9F04F88460446D21D22F0070191B0D8
:10116000D1E90001CDE90A0117F014FD02460B9800
:10117000C00F01D02D2007E02068810701D52B206A
:1011800002E0202101EAC000032A099001D0072AC9
:1011900005DB03464146204600F010FB0BE12078BA
:1011A000800601D5E06900E00620B8F1650F8146B0
:1011B00006D0B8F1660F18D0B8F1670F70D131E0E2
:1011C0000020B9F1110F009001DB112301E009F1BA
:1011D00001030AAA01A90CA8FFF7E2FEDDE90C70E1
:1011E000002609F10105834647E001204B460090A7
:1011F0004FF000470AAA01A90CA8FFF7D1FEDDE9CC
:101200000DB00C995D46002610B909F101000D18CA
:10121000B9EB050003D4C0F1FF3609F10105A5EBD8
:1012200009002BE0B9F1010F01DA4FF001090020AC
:10123000B9F1110F0090484601DD112300E003468B
:101240000AAA01A90CA8FFF7ABFEDDE90C704D4618
:1012500000268346207800070AD4AB4500DA5D46B5
:1012600001A8012D04DD411911F8011C302907D016
:101270004F4502DA17F1040F04DA012082460FE02D
:101280006D1EEEE7002F02DCED1B3E4403E0781CF0
:10129000A84200DD7D1CB81B00F1010A4FF0004799
:1012A0002078000703D4AA4501DB4FF0FF3A002164
:1012B000B7F1004F0DF143088DF8431024D0022000
:1012C0002B23002F01DA7F422D230A21021EA0F1D9
:1012D000010000DC5FB197FBF1FC97FBF1F201FB31
:1012E0001C7C17460CF1300C08F801CDEEE7A8F194
:1012F000010003702188090501D5452100E0652121
:10130000A0F1010800F8011C09980FA9A1EB08073A
:10131000FF1D00B10120411901EBEA70A1693844B9
:10132000081A401EA0612078C00602D42046FFF7AC
:10133000C2FA099828B1D4E901219047206A401CDB
:1013400020622078C00622D52046FFF7B4FA1EE0BE
:10135000002E04DBB34502DD01A8805D00E03020F3
:10136000D4E901219047206A401C2062761CAAF132
:1013700001005FEA000A0AD100F01CFAC0680168A7
:10138000405CD4E901219047206A401C2062281E5D
:10139000A5F10105DCDC07E0D4E9012118F8010B17
:1013A0009047206A401C2062381EA7F10107F3DC39
:1013B0002046FFF796FA032011B041E62DE9F04FE1
:1013C00004460D46D21D22F0070089B0D0E90097EF
:1013D0004846394617F0DEFB0246F80F01D02D23B0
:1013E00007E02068810701D52B2302E0202101EAD4
:1013F000C0038DF820300BB1012000E00020032A4B
:10140000824601D0072A04DB2946204600F0D6F99F
:101410003FE12078800601D40D2500E0E569C7F39F
:101420000A560D2D49DA00214FEA175B08464FF0A6
:101430000000002F00F4400007DA00EB80004FF4BA
:10144000400100EBD07001EA60008115012901DD47
:101450004FF0FF3100224FEA850CBCF1180F06D384
:101460001346ACF118004FF08052C24003E04FF435
:10147000801323FA0CF30CF10C0CBCF1200F04D3F5
:10148000ACF1200C09FA0CF001E007FA0CF000298D
:101490004FF0004801DD18B90FE00ED140450CD3E4
:1014A00019EB02095F4121B9404502D19F4329EA66
:1014B0000209BBEB175F00D0761C2088000502D51F
:1014C0007B48784402E07A487844193808AA3023E7
:1014D00002F80A30037C0AF10101002E0AF1020A27
:1014E00053546A4602DC4FF0300101E04FF0310105
:1014F0004FF001088DF8001002D0A6F2FF3603E08D
:1015000059EA470100D06B4E002D02DC2178090713
:1015100004D54FF002082E218DF80110C446002199
:101520000BE0C7F303433F01C35C491C6D1E02F887
:101530000830052908F1010801DA002DF1DC00214D
:101540000CE000EB1973491C1B786D1E082902F88A
:1015500008304FEA091908F1010801DA002DF0DC22
:1015600021688B0602D516E0A8F10108E04505DDEB
:1015700002EB080313F8013C302BF5D0B8F1000F53
:1015800009DD02EB080313F8013C2E2B03D10907F8
:1015900001D4A8F10108002D05DD3E2102F8081054
:1015A0006D1E08F10108407C002E02F8080008F1C9
:1015B000010804DA2D20764202F8080002E02B2010
:1015C00002F808000A214FF47A70864208F10108F7
:1015D0000BDB96FBF0F3303302F8083096FBF0F3A8
:1015E00008F1010800FB136601E0642E0CDB6420A7
:1015F00096FBF0F3303302F8083096FBF0F308F175
:10160000010800FB136601E00A2E06DB96FBF1F0F1
:10161000303002F8080008F1010896FBF1F001FBF8
:101620001060303002F80800A16908F1010808EBE9
:10163000050202EB0A00081AA0612078C00602D455
:101640002046FFF738F9216A08AE01EB0A00206254
:1016500004E0D4E9012116F8010B9047BAF1010A20
:10166000F7D22078C00602D52046FFF724F96E464F
:1016700009E016F8010B3E280FD0D4E9012190476C
:10168000206A401C2062B8F10108F2D22046FFF720
:1016900028F909B00320BDE8F08F206A28442062B1
:1016A00003E0D4E90121302090476D1EEBD3F8E729
:1016B000DE77010002FCFFFF10B5436913B1AFF301
:1016C000008001E0FFF730F9012010BD127800F131
:1016D00024010A7000224A700122EDE711684FF0E0
:1016E000FF32E9E710B5436913B1AFF3008001E0C1
:1016F000FFF7B4F9012010BD128800F124018284A3
:101700000022C2840122EDE711684FF0FF32E9E7C1
:101710002DE9F04116460C46054600F043F80368F3
:1017200093F80101012807D0FF2C12D8185D80B171
:1017300001202C70BDE8F081D3F807013246214624
:1017400003F20713C7182846BC46BDE8F041002342
:1017500060474FF0FF30EDE7754600F0EBF8AE461E
:1017600005006946534620F00700854618B020B5AD
:10177000FEF7F4FDBDE820404FF000064FF00007F3
:101780004FF000084FF0000BAC46ACE8C009ACE8E5
:10179000C009ACE8C009ACE8C00921F007018D46DA
:1017A0007047000010B500F005F8001D10BD00BF27
:1017B0005174010000487047600200202DE9F0419B
:1017C0001F46044603260168072A01F4006004DB73
:1017D00008B116A505E016A503E008B115A500E0BF
:1017E00015A521F010002060A069C01EA0610FB1F6
:1017F000401EA0612046FFF75EF84FB1D4E90121F9
:1018000038469047206A401C2062C01C206206E0D7
:10181000206AFAE7D4E9012115F8010B9047761EFA
:10182000F8D22046FFF75DF8BDE8F0814E414E004A
:101830006E616E00494E4600696E66002DE9F04704
:10184000814616468AB0354878440DC88DE80D00AB
:1018500032487844801C03AC0DC884E80D0041F682
:101860009B300844372190FBF1F290FBF1F5A5F194
:10187000800501FB12041B3C02D56442012000E0FC
:101880000020DFF898A080460027FA44AAF1BE0A9B
:101890000EE0E0070AD03246684607EB4701012315
:1018A0000AEB810117F03FF88DE8070064107F1CF8
:1018B000002CEED1194F7F44AE3F19E0E80715D058
:1018C00007EB04100DF1180A90E80E008AE80E00EC
:1018D000C068F04201D1981908903246012306A948
:1018E00003A817F020F803AB83E807006D10641C11
:1018F000002DE3D14FF0010332466946B8F1000FE5
:1019000003A802D016F0FAFF01E017F00CF8C9E9BD
:101910000001C9F808200AB0BDE8F087E8740100AA
:1019200010B50446AFF300802046BDE81040FEF736
:1019300000BD000000487047400200200000000089
:1019400030B44FF0013C50F8042B51F8043BCCFA72
:1019500052F4D51A20D1FCB950F8042B51F8043BAD
:10196000CCFA52F4D51A17D1B4B950F8042B51F867
:10197000043BCCFA52F4D51A0ED16CB950F8042BB2
:1019800051F8043BCCFA52F4D51A05D1002CDAD028
:1019900030BC4FF00000704729BAB1FA81F111F064
:1019A0001801D1F120008440F2D1CA40CB4012F09E
:1019B000FF0213F0FF0330BCD01A70470149182012
:1019C000ABBEFEE7260002007047000082B0019027
:1019D000009142F64841C2F20001086801300860F7
:1019E0009DF80700C00740B1FFE742F64841C2F248
:1019F0000001486801304860FFE7019842F648411D
:101A0000C2F20001C8610098086202B0704700008D
:101A100080B58CB00A90002309930A980890079328
:101A2000089807A94FF400620CF026FE0990099867
:101A300018B1FFE709980B9020E007986946B0229B
:101A40008A6101224A6100230B611822CA608A6000
:101A50004FF400624A60086042F69830C2F200001B
:101A600048F67861C0F6010147F6F922C0F6010296
:101A70000DF052FB099009980B90FFE70B980CB002
:101A800080BD0000FFE7FEE77047000072B6FFE789
:101A9000FEE7000080B584B0039000F025FA0290C4
:101AA000039801900198013048B1FFE740F205101A
:101AB000C2F200000178019808440190FFE7FFE7B7
:101AC00000F012FA0299401A0199884201D2FFE708
:101AD000F6E704B080BD00008EB00D900C910020A0
:101AE0000A90099008900B90FFE70B980F2800F2DE
:101AF000CC81FFE70B99012088400A900C98006880
:101B00000A990840099009980A99884240F0B881DA
:101B1000FFE70C98406800F00300012807D0FFE7BA
:101B20000C98406800F0030002282FD1FFE70D98C1
:101B3000806808900B984100032000FA01F1089892
:101B4000884308900C98C0680B99490000FA01F18D
:101B500008980843089008980D9988600D98406887
:101B600008900B99012000FA01F108988843089029
:101B70000C984068C0F300100B9900FA01F1089826
:101B80000843089008980D994860FFE70C98406852
:101B900000F00300032818D0FFE70D98C0680890F4
:101BA0000B984100032000FA01F10898884308903F
:101BB0000C9880680B99490000FA01F108980843D5
:101BC000089008980D99C860FFE70C98406800F0ED
:101BD0000300022826D1FFE70D980B996FF003024E
:101BE00002EA51010844006A08900B9800F00700CF
:101BF00081000F2000FA01F10898884308900C98A2
:101C000000690B9901F00701890000FA01F10898B9
:101C10000843089008980D990B9B02EA530211445F
:101C20000862FFE70D98006808900B9841000320B8
:101C300000FA01F10898884308900C98406800F079
:101C400003000B99490000FA01F108980843089035
:101C500008980D9908600C9880798007002800F09A
:101C60000E81FFE7FFE70020079043F64400C4F22F
:101C70000200016841F480410160006800F4804086
:101C800007900798FFE70B9820F0030043F6080140
:101C9000C4F20101405808900B9800F00300810045
:101CA0000F2000FA01F10898884308900D98002150
:101CB000C4F20201884203D1FFE7002006905EE0F3
:101CC0000D9840F20041C4F20201884203D1FFE7BF
:101CD0000120059050E00D9840F60001C4F2020189
:101CE000884203D1FFE70220049042E00D9840F6BD
:101CF0000041C4F20201884203D1FFE703200390B0
:101D000034E00D9841F20001C4F20201884203D18F
:101D1000FFE70420029026E00D9841F20041C4F252
:101D20000201884203D1FFE70520019018E00D98D9
:101D300041F60001C4F20201884203D1FFE7062008
:101D400000900AE00D9941F60042C4F20202082018
:101D5000914208BF07200090FFE700980190FFE73D
:101D600001980290FFE702980390FFE70398049020
:101D7000FFE704980590FFE705980690FFE70698AF
:101D8000C0B20B9901F00301890000FA01F1089833
:101D90000843089008980B9921F0030143F60802C4
:101DA000C4F20102885043F60840C4F20100006802
:101DB000089009990898884308900C988079C00683
:101DC000002805D5FFE70999089808430890FFE720
:101DD000089843F60841C4F20101086043F60C403C
:101DE000C4F2010000680890099908988843089097
:101DF0000C9880798006002805D5FFE70999089896
:101E000008430890FFE7089843F60C41C4F201012B
:101E1000086043F60440C4F2010000680890099984
:101E20000898884308900C9880798007002805D589
:101E3000FFE70999089808430890FFE7089843F6D8
:101E40000441C4F20101086043F60040C4F20100FD
:101E50000068089009990898884308900C98807940
:101E6000C00728B1FFE70999089808430890FFE7E1
:101E7000089843F60041C4F201010860FFE7FFE75C
:101E8000FFE70B9801300B902FE60EB07047000073
:101E900083B00290ADF80610029840690090009A55
:101EA000BDF8060002EA0001904340EA01400299B1
:101EB000886103B07047000082B00190ADF8021055
:101EC0008DF801209DF8010028B1FFE7BDF8020060
:101ED0000199886105E0BDF802000004019988615C
:101EE000FFE702B07047000042F66C40C2F200000B
:101EF0000068704780B584B003900398D0F8DC0385
:101F000002900298406F01900299086D01300865B7
:101F10000199486C40F0010048640199486C20F038
:101F20000200486440F60810C2F200000068D83091
:101F300015F0A8F804B080BD80B584B00390039874
:101F4000D0F8DC0302900298406F01900299086D6E
:101F5000013008650199486C40F00200486401991D
:101F6000486C20F00100486440F60810C2F20000FE
:101F70000068D83015F086F804B080BD80B582B016
:101F800001900198006804F01FFA02B080BD0000C3
:101F900080B582B001900198006804F01FFA02B089
:101FA00080BD000082B001908DF8031001989DF86B
:101FB0000310C1EB011100EB81010020887601992B
:101FC0009DF80320C2EB021201EB8201C876019951
:101FD0009DF80320C2EB021201EB820181F825007B
:101FE00001999DF80320C2EB021201EB820181F8F6
:101FF000240002B07047000082B001908DF80310F9
:1020000001989DF80310C1EB011100EB8100806B7A
:1020100002B0704780B584B002908DF807100020A0
:102020008DF80600FFE7029890F8D403012804D148
:10203000FFE702208DF80F0016E00299012081F8D9
:10204000D403FFE7FFE7029800689DF8071004F04B
:10205000DDF9FFE70299002081F8D403FFE79DF83E
:1020600006008DF80F00FFE79DF80F0004B080BD5B
:10207000B0B58AB094468E46044610980F990E9AD1
:1020800008948DF81FE08DF81EC08DF81D308DF876
:102090001C208DF81B10ADF81800BDF81800039037
:1020A000FFE7089890F8D403012804D1FFE7022045
:1020B0008DF82700A8E00899012081F8D403FFE7F4
:1020C000FFE708989DF81F10C1EB011100EB81019B
:1020D000002048769DF81D0008999DF81F20C2EB4E
:1020E000021201EB820108759DF81F000899C0EBF0
:1020F000001201EB820148759DF81B0008999DF8BC
:102100001F20C2EB021201EB820181F826009DF82C
:102110001E0000F07F0008999DF81F20C2EB0212FC
:1021200001EB8201887508989DF81F10FFF73AFFB0
:102130009DF81E00000600280AD5FFE708989DF8C4
:102140001F10C1EB011100EB81010120C87509E0EE
:1021500008989DF81F10C1EB011100EB81010020D0
:10216000C875FFE70898006804F038F904909DF8F6
:102170001B00012811D1FFE79DF81C0001280BD19D
:10218000FFE7049840B9FFE70398BD2803D3FFE7B2
:10219000BC200390FFE7FFE7FFE79DF81C000899CC
:1021A0009DF81F20C2EB021201EB82010876039812
:1021B00008999DF81F20C2EB021201EB82010885ED
:1021C000089800689DF81F109DF81E209DF81D308E
:1021D0009DF81CC09DF81B40BDF80C50EE46CEF893
:1021E0000850CEF80440CEF800C004F0FDF98DF898
:1021F0001700FFE70899002081F8D403FFE79DF856
:1022000017008DF82700FFE79DF827000AB0B0BD42
:10221000B0B58CB00B908DF82B108DF82A209DF85E
:102220002A00012810D0FFE79DF82A0005280BD0CE
:10223000FFE79DF82A00042806D0FFE79DF82A0052
:10224000022840F0F080FFE70B98D0F8DC030990FB
:102250000998406F0890089808B9FFE7E3E00898EC
:102260009DF82B1000EB810080680790079808B953
:10227000FFE7D8E0079880680690069808B9FFE75E
:10228000D1E09DF82A00022800F09180FFE79DF838
:102290002A0001460591012808D0FFE70598052886
:1022A00070D1FFE70699212048636FE007984068E6
:1022B000007E800778B1FFE70698007D00060028C1
:1022C00009D5FFE70898806C0799497BFFF794FED2
:1022D00006990861FFE707984068806900F00300ED
:1022E000022807D0FFE707984068007E8007002893
:1022F00044D1FFE70698007D000600283ED4FFE7A2
:10230000069908698A6B104408610699C8680969CA
:10231000884232D9FFE707984068C069069AD168B9
:102320001269891A884205D2FFE707984068C06998
:10233000049005E00699C8680969401A0490FFE70F
:102340000498069988630898806C0799497B069AD7
:102350009368D2F810C06344B2F838E0EC4600222B
:10236000CCF80C20CCF808E0CCF804300123CCF8F1
:102370000030022300F05AF855E0FFE706990020EC
:10238000486303E0069923204863FFE70698C06B83
:10239000079988600698406A20B1FFE70698416A6D
:1023A0008847FFE70698443014F06CFE3AE007983F
:1023B000007B03280FD0FFE70798007B05280AD091
:1023C000FFE70798007B072805D0FFE70798007B09
:1023D000092826D1FFE70898806C079A517B53683B
:1023E0009B6903F00303023BB3FA83F35B095B00D1
:1023F000127BB2F1030C18BF4FF0010C069AD2F811
:1024000008E014697444158FEE460022CEF80C20C3
:10241000CEF80850CEF80440CEF800C000F006F820
:10242000FFE7FFE7FFE70CB0B0BD0000B0B584B038
:1024300094468E4604460B980A99099A089A039482
:102440008DF80BE08DF80AC08DF809308DF8082062
:10245000ADF806108DF805009DF80A0003999DF867
:102460000B20C2EB021201EB8201C8759DF8090036
:1024700003999DF80B20C2EB021201EB820181F857
:1024800026009DF80800A8B9FFE703989DF80B10F7
:10249000C1EB011100EB8101032081F82A009DF8B6
:1024A000050003999DF80B20C2EB021201EB82019B
:1024B00048760AE003989DF80B10C1EB011100EB80
:1024C0008101022081F82A00FFE79DF809000146FA
:1024D0000091032800F20E810099DFE811F004005A
:1024E00000016E00B7009DF80800012864D1FFE7E5
:1024F0009DF80A0088BBFFE7BDF8060058B9FFE762
:1025000003989DF80B10C1EB011100EB8101012034
:1025100081F83D00FFE703989DF80B10C1EB011116
:1025200000EB810090F83D0058B9FFE703989DF853
:102530000B10C1EB011100EB8101002081F82A0092
:102540000AE003989DF80B10C1EB011100EB81012B
:10255000022081F82A00FFE72DE003989DF80B1078
:10256000C1EB011100EB8100807E012822D1FFE741
:1025700003989DF80B10C1EB011100EB810090F85E
:102580003C0058B9FFE703989DF80B10C1EB01110F
:1025900000EB8101002081F82A000AE003989DF8F1
:1025A0000B10C1EB011100EB8101022081F82A0020
:1025B000FFE7FFE7FFE7FFE79DE09DF80A0010BB9C
:1025C000FFE703989DF80B10C1EB011100EB8100B0
:1025D00090F83D0058B9FFE703989DF80B10C1EB48
:1025E000011100EB8101002081F82A000AE0039824
:1025F0009DF80B10C1EB011100EB8101022081F865
:102600002A00FFE721E003989DF80B10C1EB0111B0
:1026100000EB810090F83C0058B9FFE703989DF863
:102620000B10C1EB011100EB8101002081F82A00A1
:102630000AE003989DF80B10C1EB011100EB81013A
:10264000022081F82A00FFE7FFE754E09DF80A0026
:1026500010BBFFE703989DF80B10C1EB011100EBD5
:10266000810090F83D0058B9FFE703989DF80B10E2
:10267000C1EB011100EB8101002081F82A000AE082
:1026800003989DF80B10C1EB011100EB81010220B2
:1026900081F82A00FFE721E003989DF80B10C1EBB9
:1026A000011100EB810090F83C0058B9FFE7039856
:1026B0009DF80B10C1EB011100EB8101002081F8A6
:1026C0002A000AE003989DF80B10C1EB011100EB02
:1026D0008101022081F82A00FFE7FFE70BE0039861
:1026E0009DF80B10C1EB011100EB8101002081F876
:1026F0002A0000E0FFE7099803999DF80B20C2EB40
:10270000021201EB8201C862BDF8060003999DF830
:102710000B20C2EB021201EB8201486303989DF883
:102720000B10C1EB011100EB8101002081F84C007E
:1027300003999DF80B20C2EB021201EB8201886322
:102740009DF80B10039AC1EB011302EB8302517544
:1027500003999DF80B20C2EB021201EB820181F874
:102760004D00039A10689DF80B10C1EB011102EBAC
:1027700081011431927904F05DF804B0B0BD00001D
:1027800080B586B005900598006804900498039081
:102790000598006803F032FE012840F0E180FFE771
:1027A0000598006804F0B2FB08B9FFE7D8E0059887
:1027B000006804F0ABFB8002002806D5FFE705980F
:1027C00001684FF400104861FFE70598006804F0C5
:1027D0009DFBC002002806D5FFE7059801684FF46D
:1027E00080104861FFE70598006804F08FFB400106
:1027F000002806D5FFE7059801684FF08060486122
:10280000FFE70598006804F081FB8007002805D5E4
:10281000FFE70598016802204861FFE70598006816
:1028200004F074FB8000002822D5FFE705980168BA
:102830004FF0005048610398D0F84004C007B0B989
:10284000FFE70498102103F081FD049803F044FD94
:102850000598407A022806D1FFE705980068012113
:1028600004F0FEFAFFE70598FFF766FBFFE7FFE7D6
:102870000598006804F04AFBC001002804D5FFE772
:10288000059802F061FDFFE70598006804F03EFB43
:102890000007002808D5FFE7059800F04DF90598D6
:1028A000016808204861FFE70598006804F02EFBE6
:1028B0008001002838D5FFE70598006803F0B0FFD5
:1028C000019000200290FFE702980599497988421B
:1028D00024D2FFE70198029901F00F01C840C00718
:1028E000B8B1FFE70398029900EB4110D0F800055A
:1028F0000004002806D5FFE705989DF8081001F0B0
:10290000F1FA05E005989DF8081002F0CBF8FFE712
:10291000FFE7FFE7029801300290D5E705980168CC
:102920004FF000704861FFE70598006804F0EEFA88
:1029300000F010010020B0EB111F10D0FFE7059848
:102940000168886920F010008861059802F06EFD2A
:1029500005980168886940F010008861FFE7FFE78B
:1029600006B080BD80B58CB00A900A9820B9FFE708
:1029700001208DF82F0075E00A98006809900A98E8
:1029800090F8D50340B9FFE70A99002081F8D403F5
:102990000A9800F06BF8FFE70A99032081F8D50345
:1029A0000998B0F1A04F04D1FFE70A99002088717F
:1029B000FFE70A98006803F017FC0A9B1868197C67
:1029C0008DF8201059689A68DB6807930692059184
:1029D0000599069A079BDDF820C0EE46CEF800C0A8
:1029E00003F052FB40B1FFE70A99022081F8D503BA
:1029F00001208DF82F0035E00A980068012104F0CD
:102A000013FB40B1FFE70A99022081F8D5030120AA
:102A10008DF82F0026E00A9B1868197C8DF810109D
:102A200059689A68DB680393029201910199029AAE
:102A3000039BDDF810C0EE46CEF800C004F04CF960
:102A400040B1FFE70A99022081F8D50301208DF8F3
:102A50002F0007E00A99012081F8D50300208DF8A6
:102A60002F00FFE79DF82F000CB080BD80B588B027
:102A7000079000200690059004900390029007981C
:102A80000068B0F1A04F43D1FFE7FFE700200190BD
:102A900043F63000C4F20200016841F00101016018
:102AA000006800F0010001900198FFE74FF4C0506A
:102AB00002900220039000200490032005900A2039
:102AC00006900020C4F2020002A9FFF705F8FFE714
:102AD00043F63401C4F20201086840F08000086047
:102AE000FFE70020009043F64400C4F202000168B2
:102AF00041F480410160006800F48040009000983B
:102B0000FFE7FFE743200F21002200F039F9FFE73C
:102B100008B080BD81B0009001B0704781B00090D6
:102B200001B0704780B582B001900198006804F050
:102B300055FA02B080BD000080B584B003900398C0
:102B4000D0F8DC0302900298406F0190019890F851
:102B500044004007002813D4FFE70199486C40F077
:102B6000040048640299486E0130486640F6081037
:102B7000C2F20000006800F5D67014F083FAFFE797
:102B800004B080BD80B582B00090FFE7009890F857
:102B9000D403012804D1FFE702208DF8070018E0D4
:102BA0000099012081F8D403FFE7FFE7009800684F
:102BB000012103F053FB0098006803F083FBFFE75B
:102BC0000099002081F8D403FFE700208DF807006A
:102BD000FFE79DF8070002B080BD000040F205103D
:102BE000C2F20000027842F66C41C2F200010868AD
:102BF000104408607047000080B543F60041C4F2FD
:102C00000201086840F400700860086840F48060C1
:102C10000860086840F480700860032000F0CAF87B
:102C20000A2000F005F800F07BF8002080BD0000CD
:102C300080B58CB00B90002004900390FFE700203B
:102C4000009043F64000C4F20200016841F0040124
:102C50000160006800F0040000900098FFE706A8FB
:102C600002A900F0E1F909980490049820B9FFE75F
:102C700000F00AFA059004E000F006FA4000059022
:102C8000FFE705984DF68361C4F21B31A0FB0101FB
:102C90004FF0FF3000EB9140039041F22810C2F258
:102CA000000040F60001C4F20001016040F2E7318B
:102CB000C16003994160002101618160816100F080
:102CC000E3FD8DF807009DF8070028BBFFE741F200
:102CD0002810C2F2000000F029FE8DF807009DF8D0
:102CE0000700C0B9FFE71E2000F040F80B980F283E
:102CF0000CD8FFE70B991E20002200F041F80B983A
:102D000040F20811C2F20001086003E001208DF8D2
:102D10000700FFE7FFE7FFE79DF807000CB080BD65
:102D200082B0FFE70020019043F64400C4F20200A5
:102D3000016841F480410160006800F48040019026
:102D40000198FFE7FFE70020009043F64000C4F23F
:102D50000200016841F080510160006800F080507D
:102D600000900098FFE702B07047000080B582B085
:102D70008DF807009DF9070004F00AFA02B080BD43
:102D800080B586B08DF81700049103920020029060
:102D900004F016FA02909DF9170001900298049928
:102DA000039A02F08DFE0146019804F011FA06B074
:102DB00080BD000080B582B00190019804F02AFA2D
:102DC00002B080BD80B584B002900191029820B914
:102DD000FFE701208DF80F0021E1019843F6004143
:102DE000C4F20201096801F00701884212D9FFE725
:102DF000019943F60040C4F202000170006800F03F
:102E000007000199884204D0FFE701208DF80F00E8
:102E100005E1FFE702980078800700282AD5FFE740
:102E2000029800784007002809D5FFE743F608011B
:102E3000C4F20201086840F4E0500860FFE702981D
:102E400000780007002809D5FFE743F60801C4F21F
:102E50000201086840F460400860FFE743F608019B
:102E6000C4F20201086820F0F000029A9268104350
:102E70000860FFE702980078C00700286ED0FFE7DF
:102E800002984068012811D1FFE743F60000C4F220
:102E90000200006800F400310020B0EB514F04D173
:102EA000FFE701208DF80F00B9E02CE002984068A0
:102EB000022805D0FFE702984068032811D1FFE7F8
:102EC00043F60000C4F20200006800F00071002028
:102ED000B0EB516F04D1FFE701208DF80F009EE0A9
:102EE00010E043F60000C4F20200006800F00201A6
:102EF0000020B0EB510F04D1FFE701208DF80F0047
:102F00008DE0FFE7FFE743F60801C4F2020108681D
:102F100020F00300029A526810430860FEF7E4FFB5
:102F20000090FFE743F60800C4F20200006800F0DA
:102F30000C0002994968B0EB810F0ED0FFE7FEF755
:102F4000D3FF0099401A41F28931884204D3FFE748
:102F500003208DF80F0062E0E4E7FFE7019843F6F5
:102F60000041C4F20201096801F00701884212D24F
:102F7000FFE7019943F60040C4F2020001700068C7
:102F800000F007000199884204D0FFE701208DF886
:102F90000F0044E0FFE702980078400700280CD5B6
:102FA000FFE743F60801C4F20201086820F4E0508C
:102FB000029AD26810430860FFE702980078000781
:102FC00000280DD5FFE743F60801C4F202010868A6
:102FD00020F46040029A126940EAC2000860FFE7EC
:102FE00000F076F843F60801C4F202010968C9B29C
:102FF0000A0948F67851C0F60101895CC84040F2E0
:103000000001C2F20001086040F20810C2F20000A4
:103010000068FFF70DFE00208DF80F00FFE79DF818
:103020000F0004B080BD000082B0019000910199B2
:103030000F20086043F60800C4F20200016801F0A6
:103040000301019A5160016801F0F001019A916059
:10305000016801F4E051019AD160006800F4604019
:10306000C0080199086143F60040C4F202000068FC
:1030700000F007000099086002B0704740F20000BD
:10308000C2F200000068704780B5FFF7F7FF43F613
:103090000801C4F202010968C1F3822248F688518E
:1030A000C0F60101895CC84080BD000080B5FFF713
:1030B000E5FF43F60801C4F20201096889B24A0B30
:1030C00048F68851C0F60101895CC84080BD000007
:1030D00080B586B00020059004900390029043F6DE
:1030E0000800C4F20200006800F00C0001460191E3
:1030F00040B1FFE7019804280AD0FFE701980828AB
:103100000CD04FE042F20040C0F2F40002904FE0D9
:1031100041F20020C0F27A00029049E043F6040038
:10312000C4F20200016801F03F010591006840020D
:10313000002813D5FFE743F60400C4F2020000683C
:10314000C0F3881041F20021C0F27A01A0FB010116
:10315000059A0023FDF750FA049012E043F60400AC
:10316000C4F202000068C0F3881042F20041C0F2CD
:10317000F401A0FB0101059A0023FDF73DFA04903C
:10318000FFE743F60400C4F20200006800F4403197
:10319000022000EBD130039004980399B0FBF1F0CA
:1031A000029005E042F20040C0F2F4000290FFE716
:1031B000029806B080BD000080B586B004900498E7
:1031C00020B9FFE701208DF8170050E3049800783C
:1031D000C007002800F0A580FFE743F60800C4F20E
:1031E0000200006800F00C00042813D0FFE743F64B
:1031F0000800C4F20200006800F00C0008281ED18C
:10320000FFE743F60400C4F2020000684002002811
:1032100015D5FFE743F60000C4F20200006800F491
:1032200000310020B0EB514F08D0FFE70498406810
:1032300020B9FFE701208DF8170018E370E0FFE7E1
:1032400004984068B0F5803F09D1FFE743F60001DC
:10325000C4F20201086840F48030086020E004985D
:103260004068B0F5A02F0DD1FFE743F60001C4F28E
:103270000201086840F480200860086840F480304B
:1032800008600CE043F60001C4F20201086820F473
:1032900080300860086820F480200860FFE7FFE7BE
:1032A000FFE704984068E8B1FFE7FEF71DFE0390D2
:1032B000FFE743F60000C4F20200006800F40031AA
:1032C0000020B0EB514F0CD1FFE7FEF70DFE039944
:1032D000401A652804D3FFE703208DF81700C6E2E3
:1032E000E7E71CE0FEF700FE0390FFE743F600006F
:1032F000C4F20200006800F400310020B0EB514F2E
:103300000CD0FFE7FEF7F0FD0399401A652804D3BF
:10331000FFE703208DF81700A9E2E7E7FFE7FFE7E3
:10332000FFE7049800788007002840F19680FFE7C7
:1033300043F60800C4F20200006810F00C0F13D02E
:10334000FFE743F60800C4F20200006800F00C003A
:1033500008282CD1FFE743F60400C4F202000068FD
:103360004002002823D4FFE743F60000C4F2020025
:10337000006800F002010020B0EB510F09D0FFE718
:103380000498C068012804D0FFE701208DF81700D9
:103390006DE243F60001C4F20201086820F0F80073
:1033A000049A126940EAC2000860FFE754E00498FA
:1033B000C06870B3FFE70021C4F247210120086014
:1033C000FEF792FD0390FFE743F60000C4F202000F
:1033D000006800F002010020B0EB510F0CD1FFE7B4
:1033E000FEF782FD0399401A032804D3FFE7032068
:1033F0008DF817003BE2E7E743F60001C4F2020153
:10340000086820F0F800049A126940EAC2000860D7
:1034100021E00021C4F2472100200860FEF764FD8E
:103420000390FFE743F60000C4F20200006800F0DA
:1034300002010020B0EB510F0CD0FFE7FEF754FD66
:103440000399401A032804D3FFE703208DF81700DF
:103450000DE2E7E7FFE7FFE7FFE7049800780007E2
:1034600000284BD5FFE70498406918B3FFE740F602
:103470008061C4F2472101200860FEF735FD03900A
:10348000FFE743F67400C4F20200006800F0020196
:103490000020B0EB510F0CD1FFE7FEF725FD03999B
:1034A000401A032804D3FFE703208DF81700DEE15C
:1034B000E7E722E040F68061C4F24721002008607F
:1034C000FEF712FD0390FFE743F67400C4F202001A
:1034D000006800F002010020B0EB510F0CD0FFE7B4
:1034E000FEF702FD0399401A032804D3FFE70320E7
:1034F0008DF81700BBE1E7E7FFE7FFE704980078E6
:103500004007002840F1CE80FFE700208DF807003B
:1035100043F64000C4F202000068C000002815D441
:10352000FFE7FFE70020009043F64000C4F20200EE
:10353000016841F080510160006800F08050009007
:103540000098FFE701208DF80700FFE747F2000031
:10355000C4F200000068C005002822D4FFE747F24B
:103560000001C4F20001086840F480700860FEF7B2
:10357000BBFC0390FFE747F20000C4F200000068C4
:10358000C00500280CD4FFE7FEF7AEFC0399401AF3
:10359000032804D3FFE703208DF8170067E1EAE76B
:1035A000FFE7FFE704988068012809D1FFE743F6A9
:1035B0007001C4F20201086840F0010008601FE0D9
:1035C0000498806805280DD1FFE743F67001C4F226
:1035D0000201086840F004000860086840F001003B
:1035E00008600CE043F67001C4F20201086820F0A4
:1035F00001000860086820F004000860FFE7FFE7AA
:10360000FFE704988068F8B1FFE7FEF76DFC0390D0
:10361000FFE743F67000C4F20200006800F0020108
:103620000020B0EB510F0ED1FFE7FEF75DFC0399D0
:10363000401A41F28931884204D3FFE703208DF814
:10364000170014E1E5E71EE0FEF74EFC0390FFE7EC
:1036500043F67000C4F20200006800F0020100208E
:10366000B0EB510F0ED0FFE7FEF73EFC0399401A76
:1036700041F28931884204D3FFE703208DF8170017
:10368000F5E0E5E7FFE79DF80700012809D1FFE72E
:1036900043F64001C4F20201086820F0805008603F
:1036A000FFE7FFE704988069002800F0DC80FFE76F
:1036B00043F60800C4F20200006800F00C0008287D
:1036C00000F08580FFE70498806902285CD1FFE75D
:1036D0006021C4F2472100200860FEF705FC03903A
:1036E000FFE743F60000C4F20200006800F000713A
:1036F0000020B0EB516F0CD0FFE7FEF7F5FB03990C
:10370000401A032804D3FFE703208DF81700AEE02A
:10371000E7E70499C869D1F820C04B6A8A6A40EA91
:103720000C0040EA8310D2034FF6FF739A43A2F5D0
:1037300080321043C96A40EA016043F60401C4F2D2
:10374000020108606021C4F2472101200860FEF7F1
:10375000CBFB0390FFE743F60000C4F202000068D1
:1037600000F000710020B0EB516F0CD1FFE7FEF7C5
:10377000BBFB0399401A032804D3FFE703208DF80D
:10378000170074E0E7E721E06021C4F24721002040
:103790000860FEF7A9FB0390FFE743F60000C4F2C0
:1037A0000200006800F000710020B0EB516F0CD0F7
:1037B000FFE7FEF799FB0399401A032804D3FFE7BC
:1037C00003208DF8170052E0E7E7FFE74AE004988E
:1037D0008069012804D1FFE701208DF8170046E039
:1037E00043F60400C4F20200006802900498806965
:1037F000012831D0FFE7029800F480000499C969DC
:10380000884229D1FFE7029800F03F000499096A35
:10381000884221D1FFE7029847F6C0710840049919
:10382000496AB0EB811F17D1FFE7029800F44030DE
:103830000499896AC9034FF6FF729143A1F580315B
:10384000884209D1FFE7029800F070600499C96AC4
:10385000B0EB016F04D0FFE701208DF8170006E000
:10386000FFE7FFE7FFE700208DF81700FFE79DF86F
:10387000170006B080BD000081B0009001B0704715
:1038800081B0009001B0704780B582B00090009880
:1038900020B9FFE701208DF807003FE0009890F87D
:1038A0003D0040B9FFE70099002081F83C000098F6
:1038B00000F038F8FFE70099022081F83D000099F8
:1038C00051F8040B02F0B8F90099012081F8460084
:1038D000FFE70099012081F83E00009981F83F0040
:1038E000009981F84000009981F84100FFE7FFE767
:1038F0000099012081F84200009981F84300009965
:1039000081F84400009981F84500FFE70099012003
:1039100081F83D0000208DF80700FFE79DF80700C3
:1039200002B080BD81B0009001B0704783B00190BB
:10393000019890F83D00012804D0FFE701208DF8A0
:103940000B006AE00199022081F83D0001980168AE
:10395000C86840F00100C860019800680021C4F206
:10396000010188423CD0FFE701980068B0F1804F28
:1039700036D0FFE70198006840F20041C4F2000130
:1039800088422DD0FFE70198006840F60001C4F29C
:103990000001884224D0FFE70198006840F600410A
:1039A000C4F2000188421BD0FFE70198006840F292
:1039B0000041C4F20101884212D0FFE7019800687B
:1039C00044F20001C4F20101884209D0FFE70198E6
:1039D000006841F60001C4F20001884212D1FFE7FD
:1039E00001980068806800F00700009000980628A1
:1039F00007D0FFE701980168086840F001000860FF
:103A0000FFE706E001980168086840F001000860DF
:103A1000FFE700208DF80B00FFE79DF80B0003B0D7
:103A20007047000081B0009001B0704780B584B04D
:103A3000039003980068C0680290039800680069CA
:103A400001909DF804008007002824D5FFE79DF829
:103A50000800800700281DD5FFE7039801686FF074
:103A600002000861039901200877039800688069C3
:103A7000800720B1FFE70398FFF7D4FF06E0039823
:103A800000F0E2F8039800F0E3F8FFE70399002064
:103A90000877FFE7FFE79DF804004007002825D5D9
:103AA000FFE79DF80800400700281ED5FFE70398B0
:103AB00001686FF0040008610399022008770398F9
:103AC0000068806910F4407F04D0FFE70398FFF797
:103AD000A9FF06E0039800F0B7F8039800F0B8F8E3
:103AE000FFE7039900200877FFE7FFE79DF8040050
:103AF0000007002824D5FFE79DF8080000070028EC
:103B00001DD5FFE7039801686FF00800086103996D
:103B10000420087703980068C069800720B1FFE798
:103B20000398FFF77FFF06E0039800F08DF80398F5
:103B300000F08EF8FFE7039900200877FFE7FFE722
:103B40009DF80400C006002825D5FFE79DF8080071
:103B5000C00600281ED5FFE7039801686FF010002B
:103B6000086103990820087703980068C06910F479
:103B7000407F04D0FFE70398FFF754FF06E0039867
:103B800000F062F8039800F063F8FFE70399002063
:103B90000877FFE7FFE79DF80400C00778B1FFE76B
:103BA0009DF80800C00748B1FFE7039801686FF06F
:103BB00001000861039800F04FF8FFE7FFE79DF868
:103BC00004000006002810D5FFE79DF80800000655
:103BD000002809D5FFE7039801686FF080000861AD
:103BE0000398FFF749FEFFE7FFE79DF80400400652
:103BF000002810D5FFE79DF808004006002809D5E9
:103C0000FFE7039801686FF040000861039800F037
:103C100035F8FFE7FFE79DF804008006002810D57F
:103C2000FFE79DF808008006002809D5FFE7039804
:103C300001686FF0200008610398FFF721FEFFE79D
:103C4000FFE704B080BD000081B0009001B0704774
:103C500081B0009001B0704780B582B001900198AA
:103C6000006840F60001C4F20001884203D1FFE77A
:103C7000FEF7B4FFFFE702B080BD000081B0009006
:103C800001B0704780B582B00090009820B9FFE77E
:103C900001208DF8070040E00098806908B1FFE737
:103CA00000E0FFE7009890F8410040B9FFE7009975
:103CB000002081F84000009800F034F8FFE70099F8
:103CC000242081F8410000980168C86820F4005061
:103CD000C860009802F0CCF800980168086920F4E8
:103CE0009040086100980168486920F02A00486106
:103CF00000980168C86840F40050C860009900202E
:103D00004864009A202182F84110009A82F84210FB
:103D1000009948638DF80700FFE79DF8070002B09F
:103D200080BD000080B588B0079000200690059007
:103D30000490039002900798006841F20001C4F2D9
:103D40000101884234D1FFE7FFE70020019043F6EC
:103D50004400C4F20200016841F0100101600068F3
:103D600000F0100001900198FFE7FFE700200090AD
:103D700043F63000C4F20200016841F00101016025
:103D8000006800F0010000900098FFE74FF4C06069
:103D90000290022003900020049003200590072049
:103DA00006900020C4F2020002A9FDF795FEFFE78D
:103DB00008B080BD80B58AB008900791ADF81A2090
:103DC000059300200290089890F84100202840F0C8
:103DD0008180FFE7079820B1FFE7BDF81A0020B9FE
:103DE000FFE701208DF8270078E00899002048645B
:103DF0000899212081F84100FEF776F80290BDF87D
:103E00001A0008998884BDF81A000899C88408988F
:103E10008068B0F5805F09D1FFE70898006928B98C
:103E2000FFE7002004900798039004E007980490AF
:103E300000200390FFE7FFE70898C08C78B3FFE706
:103E40000898029B05996A4611608021002202F0C1
:103E5000ADF840B1FFE70899202081F84100032028
:103E60008DF827003AE0049858B9FFE703980088D6
:103E70006FF35F2008990968486003980230039047
:103E800008E00498007808990968486004980130AF
:103E90000490FFE70899C88C0138C884CCE70898DB
:103EA000029B05996A4611604021002202F07EF8CB
:103EB00040B1FFE70899202081F8410003208DF8E8
:103EC00027000BE00899202081F8410000208DF8A0
:103ED000270003E002208DF82700FFE79DF8270068
:103EE0000AB080BD80B586B005908DF81310059896
:103EF0000068039003980290059800689DF81310DD
:103F000002F0E8FF4007002819D5FFE702989DF866
:103F1000131000EB41110420C1F8080505989DF825
:103F20001310C1EB011100EB8101072081F84D0056
:103F3000059800689DF8131002F068FA92E0059861
:103F400000689DF8131002F0C5FFC00500281AD5BF
:103F5000FFE702989DF8131000EB41114FF48070B9
:103F6000C1F8080505989DF81310C1EB011100EB8D
:103F70008101082081F84D00059800689DF8131014
:103F800002F044FA6DE0059800689DF8131002F005
:103F9000A1FF0007002819D5FFE702989DF813102C
:103FA00000EB41110820C1F8080505989DF8131091
:103FB000C1EB011100EB8101062081F84D0005984D
:103FC00000689DF8131002F021FA49E00598006896
:103FD0009DF8131002F07EFF400500281AD5FFE778
:103FE00002989DF8131000EB41114FF48060C1F866
:103FF000080505989DF81310C1EB011100EB810134
:10400000092081F84D00059800689DF8131002F012
:10401000FDF924E0059800689DF8131002F05AFF9E
:104020000006002819D5FFE702989DF8131000EB51
:1040300041118020C1F8080505989DF81310C1EBC7
:10404000011100EB8101072081F84D0005980068FF
:104050009DF8131002F0DAF900E0FFE7FFE7FFE751
:10406000FFE7FFE7059800689DF8131002F032FFA4
:104070008005002811D5FFE7059800689DF813100A
:1040800002F0C4F902989DF8131000EB41114FF4AF
:104090000070C1F8080500F003BD059800689DF8A0
:1040A000131002F017FFC007002800F0F580FFE7AB
:1040B00002989DF8131000EB41112020C1F808056B
:1040C00005989DF81310C1EB011100EB8100C07E33
:1040D000012815D1FFE705989DF81310C1EB0111D8
:1040E00000EB81010020C87602989DF8131000EBC8
:1040F0004111D1F8040520F48030C1F80405FFE730
:1041000005988079C8B1FFE705989DF81320C2EBA8
:10411000021100EB8100006B029901EB4211D1F812
:1041200010156FF3DF41401A05999DF81320C2EB7B
:10413000021201EB82018863FFE705989DF81310D6
:10414000C1EB011100EB8101012081F84D000599BF
:104150009DF81320C2EB021201EB82020021516490
:1041600002999DF8132001EB4211C1F8080505984A
:104170009DF81310C1EB011100EB810090F82600AF
:1041800060B1FFE705989DF81310C1EB011100EB3A
:10419000810090F8260002280FD1FFE705980068FB
:1041A0009DF8131002F032F902989DF8131000EBFD
:1041B00041111020C1F808053AE005989DF8131048
:1041C000C1EB011100EB810090F8260003280CD010
:1041D000FFE705989DF81310C1EB011100EB81007A
:1041E00090F82600012821D1FFE702989DF81310CE
:1041F00000EB4111D1F8000540F00050C1F8000576
:1042000005989DF81310C1EB011100EB810101200D
:1042100081F84C0005989DF81310C1EB011200EBDA
:10422000820292F84C20FDF7F3FF00E0FFE7FFE782
:104230000598807901281FD1FFE705989DF8131094
:10424000C1EB011100EB8101886B098D0844013835
:10425000B0FBF1F0C00770B1FFE705989DF81310AF
:10426000C1EB011100EB810191F83C0080F00100ED
:1042700081F83C00FFE70DE005989DF81310C1EBB5
:10428000011100EB810191F83C0080F0010081F800
:104290003C00FFE700F003BC059800689DF8131090
:1042A00002F018FE800600282ED5FFE702989DF840
:1042B000131000EB41112020C1F8080505989DF866
:1042C0001310C1EB011100EB8100807E01281AD18F
:1042D000FFE705989DF81310C1EB011100EB810178
:1042E0000120C87605989DF81310C1EB011100EB71
:1042F0008101032081F84D00059800689DF8131096
:1043000002F084F8FFE7C9E3059800689DF81310F0
:1043100002F0E0FD8007002840F1DD82FFE702980F
:104320009DF8131000EB41110220C1F80805059813
:104330009DF81310C1EB011100EB810090F84D00C6
:10434000012815D1FFE705989DF81310C1EB011165
:1043500000EB8101022081F84D0005989DF81310B3
:10436000C1EB011100EB8101012081F84C00A6E2B4
:1043700005989DF81310C1EB011100EB810090F836
:104380004D00062815D1FFE705989DF81310C1EBE5
:10439000011100EB8101022081F84D0005989DF884
:1043A0001310C1EB011100EB8101052081F84C00D5
:1043B00084E205989DF81310C1EB011100EB810018
:1043C00090F84D0007280DD0FFE705989DF81310D1
:1043D000C1EB011100EB810090F84D00092840F07D
:1043E0009880FFE705989DF81310C1EB011100EBD1
:1043F0008101022081F84D0005989DF81310C1EB52
:10440000011100EB8101486C0130486405989DF86A
:104410001310C1EB011100EB8100406C03283CD369
:10442000FFE705989DF81310C1EB011100EB810126
:104430000020486405989DF81310C1EB011100EBB2
:104440008100807E01281DD1FFE705989DF813109B
:10445000C1EB011100EB81010020C87605999DF8A0
:104460001320C2EB021201EB8201087702989DF83B
:10447000131000EB4111D1F8040520F48030C1F88D
:104480000405FFE705989DF81310C1EB011100EB3F
:104490008101042081F84C003AE005989DF8131042
:1044A000C1EB011100EB8101022081F84C0005985D
:1044B0009DF81310C1EB011100EB810090F826006C
:1044C00060B1FFE705989DF81310C1EB011100EBF7
:1044D000810090F82600022819D1FFE702989DF884
:1044E000131000EB4110D0F800050190019820F066
:1044F00080400190019840F000400190019802999D
:104500009DF8132001EB4211C1F80005FFE7FFE71A
:10451000D3E105989DF81310C1EB011100EB810068
:1045200090F84D00052840F0BD80FFE705989DF804
:104530001310C1EB011100EB8101022081F84D0045
:1045400005989DF81310C1EB011100EB8100C07EAE
:10455000012840F0A680FFE705989DF81310C1EBF5
:10456000011100EB810090F8260003285DD1FFE7E0
:1045700005989DF81310C1EB011100EB8101886CC7
:104580000130886405989DF81310C1EB011100EB10
:104590008100806C03283CD3FFE705989DF8131039
:1045A000C1EB011100EB81010020886405999DF8A1
:1045B0001320C2EB021201EB8201C87605989DF828
:1045C0001310C1EB011100EB8100406C02280AD8E6
:1045D000FFE705989DF81310C1EB011100EB810175
:1045E00001200877FFE702989DF8131000EB4111B6
:1045F000D1F8040520F48030C1F8040505989DF831
:104600001310C1EB011100EB8101042081F84C0073
:104610000AE005989DF81310C1EB011100EB810130
:10462000022081F84C00FFE70AE005989DF813107E
:10463000C1EB011100EB8101022081F84C00FFE782
:1046400005989DF81310C1EB011100EB810090F863
:10465000260060B1FFE705989DF81310C1EB01112A
:1046600000EB810090F82600022819D1FFE702989C
:104670009DF8131000EB4110D0F80005019001984F
:1046800020F080400190019840F000400190019896
:1046900002999DF8132001EB4211C1F80005FFE7D4
:1046A000FFE709E105989DF81310C1EB011100EB3C
:1046B000810090F84D00032872D1FFE705989DF81E
:1046C0001310C1EB011100EB8101022081F84D00B4
:1046D00005989DF81310C1EB011100EB8100C07E1D
:1046E00001285CD1FFE705989DF81310C1EB01117B
:1046F00000EB8101022081F84C0002989DF8131014
:1047000000EB4111D1F8040540F48030C1F80405F4
:1047100002989DF8131000EB4111D1F80C0540F000
:104720004000C1F80C0502989DF8131000EB4111F0
:10473000D1F80C0520F02000C1F80C0505989DF873
:104740001310C1EB011100EB810090F8260060B15D
:10475000FFE705989DF81310C1EB011100EB8100F4
:1047600090F82600022819D1FFE702989DF813104F
:1047700000EB4110D0F800050190019820F0804036
:104780000190019840F000400190019802999DF835
:10479000132001EB4211C1F80005FFE7FFE78AE0B3
:1047A00005989DF81310C1EB011100EB810090F802
:1047B0004D00042844D1FFE705989DF81310C1EB84
:1047C000011100EB8101022081F84D0005999DF84F
:1047D0001320C2EB021201EB820181F84C00059814
:1047E0009DF81310C1EB011100EB810090F8260039
:1047F00060B1FFE705989DF81310C1EB011100EBC4
:10480000810090F82600022819D1FFE702989DF850
:10481000131000EB4110D0F800050190019820F032
:1048200080400190019840F0004001900198029969
:104830009DF8132001EB4211C1F80005FFE739E0B4
:1048400005989DF81310C1EB011100EB810090F861
:104850004D0008281FD1FFE705989DF81310C1EB04
:10486000011100EB8101022081F84D0005989DF8AF
:104870001310C1EB011100EB8101486C0130486459
:1048800005989DF81310C1EB011100EB8101042084
:1048900081F84C000DE005989DF81310C1EB011153
:1048A00000EB810090F84D00022801D1FFE7F7E00E
:1048B000FFE7FFE7FFE7FFE7FFE7FFE7FFE7059811
:1048C0009DF81310C1EB011200EB820292F84C200C
:1048D000FDF79EFCE1E0059800689DF8131002F0DA
:1048E000F9FA400600282DD5FFE702989DF813102D
:1048F00000EB41114020C1F8080505989DF8131000
:10490000C1EB011100EB8101052081F84D000598F4
:104910009DF81310C1EB011100EB8100807E50B9AE
:10492000FFE705989DF81310C1EB011100EB810121
:1049300000204864FFE7059800689DF8131001F017
:1049400065FDA9E0059800689DF8131002F0C2FA11
:10495000C006002840F19E80FFE705989DF81310DF
:10496000C1EB011100EB810090F8260003281AD159
:10497000FFE705989DF81310C1EB011100EB8101D1
:104980000020486405989DF81310C1EB011100EB5D
:104990008101042081F84D00059800689DF81310EE
:1049A00001F034FD42E005989DF81310C1EB0111B0
:1049B00000EB810090F8260060B1FFE705989DF8B4
:1049C0001310C1EB011100EB810090F826000228C2
:1049D0002AD1FFE705989DF81310C1EB011100EBF8
:1049E0008101002048640598807958B1FFE7059857
:1049F0009DF81310C1EB011100EB8100C07E01286E
:104A000011D1FFE705989DF81310C1EB011100EBE0
:104A10008101042081F84D00059800689DF813106D
:104A200001F0F4FCFFE700E0FFE7FFE705989DF8E1
:104A30001310C1EB011100EB8100C07E012820D1D1
:104A4000FFE705989DF81310C1EB011100EB810100
:104A50000020C87602989DF8131000EB4111D1F8A0
:104A6000040520F48030C1F8040502989DF8131065
:104A700000EB4111D1F80C0540F02000C1F80C0505
:104A8000FFE702989DF8131000EB41111020C1F8C8
:104A9000080500E0FFE7FFE7FFE7FFE7FFE7FFE7C5
:104AA00006B080BD80B586B005908DF813100598CE
:104AB0000068039003980290059800689DF8131011
:104AC00002F008FA400700281AD5FFE702989DF87F
:104AD000131000EB41110420C1F8080505989DF85A
:104AE0001310C1EB011100EB8101072081F84D008B
:104AF000059800689DF8131001F088FC00F022BCB6
:104B0000059800689DF8131002F0E4F9800600286B
:104B10007DD5FFE702989DF8131000EB411120208E
:104B2000C1F8080505989DF81310C1EB011100EBC1
:104B30008100407E012824D1FFE705989DF81310DD
:104B4000C1EB011100EB81010020487605989DF82A
:104B50001310C1EB011100EB8101022081F84C0020
:104B600005989DF81310C1EB011100EB81010320A2
:104B700081F84D00059800689DF8131001F046FC7F
:104B8000FFE705989DF81310C1EB011100EB8100C0
:104B9000807E01283AD1FFE705989DF81310C1EBFC
:104BA000011100EB8100C07E80BBFFE705989DF8F6
:104BB0001310C1EB011100EB810090F826000128D1
:104BC0000AD0FFE705989DF81310C1EB011100EB27
:104BD00081010120C876FFE705989DF81310C1EB0D
:104BE000011100EB8101032081F84D000598006858
:104BF0009DF8131001F00AFC05989DF81310C1EB05
:104C0000011100EB810100204864FFE799E305985A
:104C100000689DF8131002F05DF98005002810D59A
:104C2000FFE702989DF8131000EB41114FF400705C
:104C3000C1F80805059800689DF8131001F0E6FB1F
:104C40007EE3059800689DF8131002F043F9C00751
:104C500000285CD0FFE705989DF81310C1EB011107
:104C600000EB810100204864059800689DF813104E
:104C700002F030F94006002812D5FFE705989DF8AC
:104C80001310C1EB011100EB81010120487602985D
:104C90009DF8131000EB41114020C1F80805FFE713
:104CA00005989DF81310C1EB011100EB8100C07E47
:104CB000A8B1FFE705989DF81310C1EB011100EBB7
:104CC00081010020C87602989DF8131000EB411175
:104CD000D1F8040520F48030C1F80405FFE70298FC
:104CE0009DF8131000EB41110120C1F8080505994A
:104CF0009DF81320C2EB021201EB820181F84D00F6
:104D0000059800689DF8131001F080FB17E30598E3
:104D100000689DF8131002F0DDF84006002836D533
:104D2000FFE705989DF81310C1EB011100EB81011D
:104D3000052081F84D0005989DF81310C1EB011175
:104D400000EB8100807E50B9FFE705989DF81310B5
:104D5000C1EB011100EB810101204876FFE70598C6
:104D60009DF81310C1EB011100EB81010020486494
:104D7000059800689DF8131001F048FB02989DF813
:104D8000131000EB41114020C1F80805D6E2059848
:104D900000689DF8131002F09DF80007002819D54F
:104DA000FFE702989DF8131000EB41110820C1F8AD
:104DB000080505989DF81310C1EB011100EB810166
:104DC000062081F84D00059800689DF8131001F049
:104DD0001DFBB2E2059800689DF8131002F07AF806
:104DE000C006002841D5FFE705989DF81310C1EBD8
:104DF000011100EB81010020486405989DF8131013
:104E0000C1EB011100EB8101042081F84D000598F0
:104E10009DF81310C1EB011100EB8100407EA8B991
:104E2000FFE705989DF81310C1EB011100EB81001D
:104E3000007E50B9FFE705989DF81310C1EB0111F2
:104E400000EB810101204876FFE7FFE70598006845
:104E50009DF8131001F0DAFA02989DF8131000EB98
:104E600041111020C1F8080566E2059800689DF818
:104E7000131002F02FF80006002876D5FFE70598FA
:104E8000807988B9FFE705989DF81310C1EB0111EF
:104E900000EB8101072081F84D00059800689DF81E
:104EA000131001F0B3FA57E005989DF81310C1EB09
:104EB000011100EB8101486C0130486405989DF8B0
:104EC0001310C1EB011100EB8100406C03281FD3CC
:104ED000FFE705989DF81310C1EB011100EB81016C
:104EE0000020486405989DF81310C1EB011100EBF8
:104EF0008101042081F84C0005989DF81310C1EB46
:104F0000011200EB820292F84C20FDF781F922E0B9
:104F100005989DF81310C1EB011100EB81010220EF
:104F200081F84C0002989DF8131000EB4110D0F866
:104F300000050190019820F080400190019840F018
:104F400000400190019802999DF8132001EB421155
:104F5000C1F80005FFE7FFE702989DF8131000EB8A
:104F600041118020C1F80805E5E1059800689DF829
:104F7000131001F0AFFF400500281AD5FFE7059890
:104F80009DF81310C1EB011100EB8101092081F89C
:104F90004D00059800689DF8131001F037FA02984B
:104FA0009DF8131000EB41114FF48060C1F8080523
:104FB000C0E1059800689DF8131001F08BFF800791
:104FC000002840F1B581FFE702989DF8131000EB2F
:104FD00041110220C1F8080505989DF81310C1EB96
:104FE000011100EB810090F84D00012871D1FFE71D
:104FF00005989DF81310C1EB011100EB810102200F
:1050000081F84D0005989DF81310C1EB011100EBDC
:105010008101012081F84C0005989DF81310C1EB27
:10502000011100EB810090F8260002280CD0FFE768
:1050300005989DF81310C1EB011100EB810090F869
:105040002600032844D1FFE70598807970B9FFE76F
:1050500005989DF81310C1EB011100EB810191F847
:105060003D0080F0010081F83D00FFE70598807960
:1050700001282CD1FFE705989DF81310C1EB011111
:1050800000EB8100406B10B3FFE705989DF813100B
:10509000C1EB011100EB8101486B098D0844013817
:1050A000B0FBF1F000909DF80000C00770B1FFE781
:1050B00005989DF81310C1EB011100EB810191F8E7
:1050C0003D0080F0010081F83D00FFE7FFE7FFE7CA
:1050D00022E105989DF81310C1EB011100EB81004E
:1050E00090F84D00032821D1FFE705989DF8131093
:1050F000C1EB011100EB8101022081F84D00059800
:105100009DF81310C1EB011100EB8100C07E012856
:105110000BD1FFE705989DF81310C1EB011100EBCF
:105120008101022081F84C00FFE7F4E005989DF82A
:105130001310C1EB011100EB810090F84D00042821
:1051400034D1FFE705989DF81310C1EB011100EB76
:105150008101022081F84D0005999DF81320C2EBD2
:10516000021201EB820181F84C0005989DF81310A2
:10517000C1EB011100EB8100C07E012815D1FFE7D2
:1051800005989DF81310C1EB011100EB810100207F
:10519000C87602989DF8131000EB4111D1F8040570
:1051A00020F48030C1F80405FFE7B3E005989DF8CE
:1051B0001310C1EB011100EB810090F84D000528A0
:1051C00014D1FFE705989DF81310C1EB011100EB16
:1051D0008101022081F84D0005999DF81320C2EB52
:1051E000021201EB820181F84C0092E005989DF8D3
:1051F0001310C1EB011100EB810090F84D0006285F
:1052000015D1FFE705989DF81310C1EB011100EBD4
:105210008101022081F84D0005989DF81310C1EB23
:10522000011100EB8101052081F84C0070E0059828
:105230009DF81310C1EB011100EB810090F84D00B7
:1052400007280CD0FFE705989DF81310C1EB01115A
:1052500000EB810090F84D00092857D1FFE7059831
:105260009DF81310C1EB011100EB8101022081F8C0
:105270004D0005989DF81310C1EB011100EB810161
:10528000486C0130486405989DF81310C1EB01117A
:1052900000EB8100406C032814D3FFE705989DF8CC
:1052A0001310C1EB011100EB810100204864059847
:1052B0009DF81310C1EB011100EB8101042081F86E
:1052C0004C0022E005989DF81310C1EB011100EB92
:1052D0008101022081F84C0002989DF8131000EB28
:1052E0004110D0F800050190019820F08040019015
:1052F000019840F000400190019802999DF8132018
:1053000001EB4211C1F80005FFE700E01AE0FFE7FA
:10531000FFE7FFE7FFE7FFE705989DF81310C1EBF4
:10532000011200EB820292F84C20FCF771FF00E0C2
:1053300008E0FFE7FFE7FFE7FFE7FFE7FFE7FFE73B
:10534000FFE7FFE706B080BD80B586B00590059801
:1053500000680490049803900398D0F840040290E9
:105360000398D0F840040190019820F02E0001909D
:105370000298800700280DD5FFE70298C00720B1EA
:10538000FFE70598FCF7B6FDFFE7019840F0020043
:105390000190FFE702980007002837D5FFE7019842
:1053A00040F00800019002984007002829D5FFE747
:1053B0000598407A022814D1FFE7029800F4C02033
:1053C000B0F5802F06D1FFE705980068022101F0B3
:1053D00047FD05E005980068012101F041FDFFE768
:1053E0000BE00598C079012806D1FFE703994EF636
:1053F0006020C1F80404FFE7FFE70598FDF78EFB86
:1054000003E00598FDF786FBFFE7FFE702988006BB
:10541000002805D5FFE7019840F020000190FFE744
:1054200001980399C1F8400406B080BD80B58AB0E8
:1054300009900998006808900898079009980068F2
:10544000006A0490049800F00F0001900498C0F3E3
:10545000434006900498C0F30A100590069802385D
:1054600001460091052800F28A800099DFE801F0EA
:10547000038687858786059800287DD0FFE70998F1
:105480000199C1EB011100EB8100C06A002873D0C3
:10549000FFE709980199C1EB011100EB8100416B15
:1054A000806B059A104488425BD8FFE70999086829
:1054B000019AC2EB021201EB8201C96ABDF8142005
:1054C00001F032FD059A09980199C1EB011100EB39
:1054D0008101C86A1044C862059A09980199C1EB14
:1054E000011100EB8101886B1044886307980199D2
:1054F00000EB4110D0F81005C0F3C94003900998A3
:105500000199C1EB011100EB8100008D05998842E2
:1055100026D1FFE7039818B3FFE70798019900EB3E
:105520004110D0F800050290029820F080400290CF
:10553000029840F00040029002980799019A01EB0E
:105540004211C1F8000509980199C1EB011100EB66
:10555000810191F83C0080F0010081F83C00FFE7F8
:1055600009E009980199C1EB011100EB81010420C8
:1055700081F84C00FFE7FFE702E001E0FFE7FFE70B
:105580000AB080BDFFE7FEE783B0029000200190E3
:1055900002980090019803B07047000080B590B069
:1055A00000200F900E900D900C900B90FFE70020C4
:1055B0000A9043F63000C4F20200016841F0200175
:1055C0000160006800F020000A900A98FFE7FFE7FA
:1055D0000020099043F63000C4F20200016841F057
:1055E00080010160006800F0800009900998FFE7E1
:1055F000FFE70020089043F63000C4F20200016883
:1056000041F001010160006800F001000890089875
:10561000FFE7FFE70020079043F63000C4F20200E6
:10562000016841F002010160006800F0020007908B
:105630000798FFE741F20040C4F2020001904FF4E6
:105640000071009100220492FCF736FC009A019848
:1056500004990B92012203920C920D910E910BA9C9
:105660000691FCF739FA039A0020C4F20200059073
:105670004FF400410291FCF71FFCDDF808C0039BCA
:10568000049A05980699CDF82CC00C930D920E92B1
:10569000FCF722FA10B080BD80B506F0C3FA80BDD9
:1056A00080B582B041F27010C2F20000019041F268
:1056B0000001C4F2010101604FF4E13141600021B9
:1056C0008160C16001610C2242618161C161FEF7AC
:1056D000D9FA18B1FFE7FCF7D9F9FFE702B080BDAE
:1056E00080B58EB00C90002007900B900C990A9119
:1056F000099049F27820C0F6010012F0C3FD079B23
:1057000042F67040C2F200004FF480311A4611F0A8
:105710001BF80990099850B1FFE7099949F26440D4
:10572000C0F6010012F0AEFD09980D90A2E149F219
:105730001C30C0F6010012F0A5FD47F60D50C0F672
:10574000010010F071F80990099850B1FFE709992C
:1057500049F23340C0F6010012F094FD09980D9013
:1057600088E149F2F720C0F6010012F08BFD40F20B
:10577000DE00C2F2000043F2D111C0F601010FF0C9
:1057800039F90990099850B1FFE7099949F2914018
:10579000C0F6010012F076FD09980D906AE149F219
:1057A0001570C0F6010012F06DFD40F2CC00C2F29F
:1057B000000040F6ED01C0F601010FF01BF9099061
:1057C000099850B1FFE7099949F2BC40C0F60100C1
:1057D00012F058FD09980D904CE149F23370C0F673
:1057E000010012F04FFD40F2AD00C2F2000041F6A0
:1057F0002551C0F601010AF0FFFD0990099850B14A
:10580000FFE7099949F21C50C0F6010012F03AFD79
:1058100009980D902EE149F27970C0F6010012F05E
:1058200031FD40F28B00C2F2000041F2ED51C0F6B2
:1058300001010AF0E1FD0990099850B1FFE70999CB
:1058400049F2E740C0F6010012F01CFD09980D90E6
:1058500010E149F25170C0F6010012F013FD49F653
:10586000A320C0F601004FF68D21C0F6000140F6DE
:105870004053C2F200034FF0A0420FF055FF0990D1
:10588000099850B1FFE7099949F24E50C0F601005E
:1058900012F0F8FC09980D90ECE049F2D610C0F631
:1058A000010012F0EFFC41F29060C2F2000049F6F4
:1058B000C021C0F60101242209F026F809900998B8
:1058C00050B1FFE7099949F20240C0F6010012F019
:1058D000D9FCFF200D90CDE06946B0208861012001
:1058E000486100230B611420C86088604FF4806019
:1058F000486041F26470C2F20000086041F2B46096
:10590000C2F2000049F66E21C0F6010147F2FD42E5
:10591000C0F6010209F000FC0990099850B1FFE7B8
:10592000099949F2A230C0F6010012F0ABFCFF2049
:105930000D909FE049F60C00C0F6010012F0A2FCA9
:1059400041F2BC10C2F2000049F6B021C0F60101DC
:10595000242208F0D9FF0990099850B1FFE709996E
:1059600049F2CE30C0F6010012F08CFCFF200D9001
:1059700080E06946B02088610120486100230B6106
:105980001420C86088604FF48060486041F2902025
:10599000C2F20000086041F2E010C2F2000049F6D5
:1059A0009D41C0F6010147F2B122C0F6010209F0A3
:1059B000B3FB0990099850B1FFE7099949F2733098
:1059C000C0F6010012F05EFCFF200D9052E049F29B
:1059D000EB70C0F6010012F055FC40F64050C2F2E8
:1059E0000000FDF7CFF848B1FFE749F2AC60C0F620
:1059F000010012F047FCFF200D903BE049F68300C8
:105A0000C0F6010012F03EFC00200890FFE7089865
:105A10004CF6BF71C0F26A01884206D8FFE700BFAA
:105A2000FFE7089801300890F1E749F66000C0F6FA
:105A3000010012F027FC4320FDF798F949F290602D
:105A4000C0F6010012F01EFC40F60410C2F2000085
:105A500000684268816849F62610C0F6010012F01D
:105A600011FC49F24720C0F6010012F00BFC0B9824
:105A70000D90FFE70D980EB080BD000080B582B09C
:105A800040F64050C2F2000001904FF0A04101608A
:105A9000082141710122C2710021817102234372E8
:105AA00082728173FCF75EFF18B1FFE7FBF7EEFF30
:105AB000FFE702B080BD0000FFE7FEE7FFE7FEE77B
:105AC00088B0079006910592079800F007000490AF
:105AD0000498C0F10700052803D3FFE704200190D4
